{
    "_format": "hh-sol-artifact-1",
    "contractName": "Certificate",
    "sourceName": "contracts/Certificate.sol",
    "abi": [
        {
            "inputs": [],
            "stateMutability": "nonpayable",
            "type": "constructor"
        },
        {
            "inputs": [
                {
                    "internalType": "address",
                    "name": "owner",
                    "type": "address"
                }
            ],
            "name": "OwnableInvalidOwner",
            "type": "error"
        },
        {
            "inputs": [
                {
                    "internalType": "address",
                    "name": "account",
                    "type": "address"
                }
            ],
            "name": "OwnableUnauthorizedAccount",
            "type": "error"
        },
        {
            "anonymous": false,
            "inputs": [
                {
                    "indexed": false,
                    "internalType": "uint256",
                    "name": "certId",
                    "type": "uint256"
                },
                {
                    "indexed": false,
                    "internalType": "address",
                    "name": "issuedTo",
                    "type": "address"
                }
            ],
            "name": "CertificateIssued",
            "type": "event"
        },
        {
            "anonymous": false,
            "inputs": [
                {
                    "indexed": true,
                    "internalType": "address",
                    "name": "previousOwner",
                    "type": "address"
                },
                {
                    "indexed": true,
                    "internalType": "address",
                    "name": "newOwner",
                    "type": "address"
                }
            ],
            "name": "OwnershipTransferred",
            "type": "event"
        },
        {
            "inputs": [
                {
                    "internalType": "uint256",
                    "name": "",
                    "type": "uint256"
                }
            ],
            "name": "certificates",
            "outputs": [
                {
                    "internalType": "string",
                    "name": "studentName",
                    "type": "string"
                },
                {
                    "internalType": "string",
                    "name": "courseName",
                    "type": "string"
                },
                {
                    "internalType": "uint256",
                    "name": "dateOfIssue",
                    "type": "uint256"
                },
                {
                    "internalType": "address",
                    "name": "issuer",
                    "type": "address"
                }
            ],
            "stateMutability": "view",
            "type": "function"
        },
        {
            "inputs": [],
            "name": "getCertificateCount",
            "outputs": [
                {
                    "internalType": "uint256",
                    "name": "",
                    "type": "uint256"
                }
            ],
            "stateMutability": "view",
            "type": "function"
        },
        {
            "inputs": [
                {
                    "internalType": "string",
                    "name": "name",
                    "type": "string"
                },
                {
                    "internalType": "string",
                    "name": "course",
                    "type": "string"
                }
            ],
            "name": "issueCertificate",
            "outputs": [],
            "stateMutability": "nonpayable",
            "type": "function"
        },
        {
            "inputs": [],
            "name": "owner",
            "outputs": [
                {
                    "internalType": "address",
                    "name": "",
                    "type": "address"
                }
            ],
            "stateMutability": "view",
            "type": "function"
        },
        {
            "inputs": [],
            "name": "renounceOwnership",
            "outputs": [],
            "stateMutability": "nonpayable",
            "type": "function"
        },
        {
            "inputs": [
                {
                    "internalType": "address",
                    "name": "newOwner",
                    "type": "address"
                }
            ],
            "name": "transferOwnership",
            "outputs": [],
            "stateMutability": "nonpayable",
            "type": "function"
        },
        {
            "inputs": [
                {
                    "internalType": "uint256",
                    "name": "id",
                    "type": "uint256"
                }
            ],
            "name": "viewCertificate",
            "outputs": [
                {
                    "components": [
                        {
                            "internalType": "string",
                            "name": "studentName",
                            "type": "string"
                        },
                        {
                            "internalType": "string",
                            "name": "courseName",
                            "type": "string"
                        },
                        {
                            "internalType": "uint256",
                            "name": "dateOfIssue",
                            "type": "uint256"
                        },
                        {
                            "internalType": "address",
                            "name": "issuer",
                            "type": "address"
                        }
                    ],
                    "internalType": "struct Certificate.Cert",
                    "name": "",
                    "type": "tuple"
                }
            ],
            "stateMutability": "view",
            "type": "function"
        }
    ],
    "bytecode": "0x60806040523480156200001157600080fd5b5033600073ffffffffffffffffffffffffffffffffffffffff168173ffffffffffffffffffffffffffffffffffffffff1603620000885760006040517f1e4fbdf70000000000000000000000000000000000000000000000000000000081526004016200007f9190620001a9565b60405180910390fd5b6200009981620000a060201b60201c565b50620001c6565b60008060009054906101000a900473ffffffffffffffffffffffffffffffffffffffff169050816000806101000a81548173ffffffffffffffffffffffffffffffffffffffff021916908373ffffffffffffffffffffffffffffffffffffffff1602179055508173ffffffffffffffffffffffffffffffffffffffff168173ffffffffffffffffffffffffffffffffffffffff167f8be0079c531659141344cd1fd0a4f28419497f9722a3daafe3b4186f6b6457e060405160405180910390a35050565b600073ffffffffffffffffffffffffffffffffffffffff82169050919050565b6000620001918262000164565b9050919050565b620001a38162000184565b82525050565b6000602082019050620001c0600083018462000198565b92915050565b6112e680620001d66000396000f3fe608060405234801561001057600080fd5b506004361061007d5760003560e01c80638809f7271161005b5780638809f727146100db5780638da5cb5b146100f9578063a535cd3d14610117578063f2fde38b146101475761007d565b8063211bbe7114610082578063663b3e221461009e578063715018a6146100d1575b600080fd5b61009c60048036038101906100979190610a53565b610163565b005b6100b860048036038101906100b39190610b01565b610321565b6040516100c89493929190610bfd565b60405180910390f35b6100d9610491565b005b6100e36104a5565b6040516100f09190610c50565b60405180910390f35b6101016104b2565b60405161010e9190610c6b565b60405180910390f35b610131600480360381019061012c9190610b01565b6104db565b60405161013e9190610d58565b60405180910390f35b610161600480360381019061015c9190610da6565b6106e2565b005b61016b610768565b60008251116101af576040517f08c379a00000000000000000000000000000000000000000000000000000000081526004016101a690610e1f565b60405180910390fd5b60008151116101f3576040517f08c379a00000000000000000000000000000000000000000000000000000000081526004016101ea90610e8b565b60405180910390fd5b600160405180608001604052808481526020018381526020014281526020013373ffffffffffffffffffffffffffffffffffffffff168152509080600181540180825580915050600190039060005260206000209060040201600090919091909150600082015181600001908161026a91906110b7565b50602082015181600101908161028091906110b7565b506040820151816002015560608201518160030160006101000a81548173ffffffffffffffffffffffffffffffffffffffff021916908373ffffffffffffffffffffffffffffffffffffffff16021790555050507fe49b307e598015623a2892255804cc484dc5e94047758669301ad2f11a739ffb6001808054905061030691906111b8565b336040516103159291906111ec565b60405180910390a15050565b6001818154811061033157600080fd5b906000526020600020906004020160009150905080600001805461035490610eda565b80601f016020809104026020016040519081016040528092919081815260200182805461038090610eda565b80156103cd5780601f106103a2576101008083540402835291602001916103cd565b820191906000526020600020905b8154815290600101906020018083116103b057829003601f168201915b5050505050908060010180546103e290610eda565b80601f016020809104026020016040519081016040528092919081815260200182805461040e90610eda565b801561045b5780601f106104305761010080835404028352916020019161045b565b820191906000526020600020905b81548152906001019060200180831161043e57829003601f168201915b5050505050908060020154908060030160009054906101000a900473ffffffffffffffffffffffffffffffffffffffff16905084565b610499610768565b6104a360006107ef565b565b6000600180549050905090565b60008060009054906101000a900473ffffffffffffffffffffffffffffffffffffffff16905090565b6104e36108bb565b600180549050821061052a576040517f08c379a000000000000000000000000000000000000000000000000000000000815260040161052190611261565b60405180910390fd5b6001828154811061053e5761053d611281565b5b906000526020600020906004020160405180608001604052908160008201805461056790610eda565b80601f016020809104026020016040519081016040528092919081815260200182805461059390610eda565b80156105e05780601f106105b5576101008083540402835291602001916105e0565b820191906000526020600020905b8154815290600101906020018083116105c357829003601f168201915b505050505081526020016001820180546105f990610eda565b80601f016020809104026020016040519081016040528092919081815260200182805461062590610eda565b80156106725780601f1061064757610100808354040283529160200191610672565b820191906000526020600020905b81548152906001019060200180831161065557829003601f168201915b50505050508152602001600282015481526020016003820160009054906101000a900473ffffffffffffffffffffffffffffffffffffffff1673ffffffffffffffffffffffffffffffffffffffff1673ffffffffffffffffffffffffffffffffffffffff16815250509050919050565b6106ea610768565b600073ffffffffffffffffffffffffffffffffffffffff168173ffffffffffffffffffffffffffffffffffffffff160361075c5760006040517f1e4fbdf70000000000000000000000000000000000000000000000000000000081526004016107539190610c6b565b60405180910390fd5b610765816107ef565b50565b6107706108b3565b73ffffffffffffffffffffffffffffffffffffffff1661078e6104b2565b73ffffffffffffffffffffffffffffffffffffffff16146107ed576107b16108b3565b6040517f118cdaa70000000000000000000000000000000000000000000000000000000081526004016107e49190610c6b565b60405180910390fd5b565b60008060009054906101000a900473ffffffffffffffffffffffffffffffffffffffff169050816000806101000a81548173ffffffffffffffffffffffffffffffffffffffff021916908373ffffffffffffffffffffffffffffffffffffffff1602179055508173ffffffffffffffffffffffffffffffffffffffff168173ffffffffffffffffffffffffffffffffffffffff167f8be0079c531659141344cd1fd0a4f28419497f9722a3daafe3b4186f6b6457e060405160405180910390a35050565b600033905090565b6040518060800160405280606081526020016060815260200160008152602001600073ffffffffffffffffffffffffffffffffffffffff1681525090565b6000604051905090565b600080fd5b600080fd5b600080fd5b600080fd5b6000601f19601f8301169050919050565b7f4e487b7100000000000000000000000000000000000000000000000000000000600052604160045260246000fd5b61096082610917565b810181811067ffffffffffffffff8211171561097f5761097e610928565b5b80604052505050565b60006109926108f9565b905061099e8282610957565b919050565b600067ffffffffffffffff8211156109be576109bd610928565b5b6109c782610917565b9050602081019050919050565b82818337600083830152505050565b60006109f66109f1846109a3565b610988565b905082815260208101848484011115610a1257610a11610912565b5b610a1d8482856109d4565b509392505050565b600082601f830112610a3a57610a3961090d565b5b8135610a4a8482602086016109e3565b91505092915050565b60008060408385031215610a6a57610a69610903565b5b600083013567ffffffffffffffff811115610a8857610a87610908565b5b610a9485828601610a25565b925050602083013567ffffffffffffffff811115610ab557610ab4610908565b5b610ac185828601610a25565b9150509250929050565b6000819050919050565b610ade81610acb565b8114610ae957600080fd5b50565b600081359050610afb81610ad5565b92915050565b600060208284031215610b1757610b16610903565b5b6000610b2584828501610aec565b91505092915050565b600081519050919050565b600082825260208201905092915050565b60005b83811015610b68578082015181840152602081019050610b4d565b60008484015250505050565b6000610b7f82610b2e565b610b898185610b39565b9350610b99818560208601610b4a565b610ba281610917565b840191505092915050565b610bb681610acb565b82525050565b600073ffffffffffffffffffffffffffffffffffffffff82169050919050565b6000610be782610bbc565b9050919050565b610bf781610bdc565b82525050565b60006080820190508181036000830152610c178187610b74565b90508181036020830152610c2b8186610b74565b9050610c3a6040830185610bad565b610c476060830184610bee565b95945050505050565b6000602082019050610c656000830184610bad565b92915050565b6000602082019050610c806000830184610bee565b92915050565b600082825260208201905092915050565b6000610ca282610b2e565b610cac8185610c86565b9350610cbc818560208601610b4a565b610cc581610917565b840191505092915050565b610cd981610acb565b82525050565b610ce881610bdc565b82525050565b60006080830160008301518482036000860152610d0b8282610c97565b91505060208301518482036020860152610d258282610c97565b9150506040830151610d3a6040860182610cd0565b506060830151610d4d6060860182610cdf565b508091505092915050565b60006020820190508181036000830152610d728184610cee565b905092915050565b610d8381610bdc565b8114610d8e57600080fd5b50565b600081359050610da081610d7a565b92915050565b600060208284031215610dbc57610dbb610903565b5b6000610dca84828501610d91565b91505092915050565b7f496e76616c69642073747564656e74206e616d65000000000000000000000000600082015250565b6000610e09601483610b39565b9150610e1482610dd3565b602082019050919050565b60006020820190508181036000830152610e3881610dfc565b9050919050565b7f496e76616c696420636f75727365206e616d6500000000000000000000000000600082015250565b6000610e75601383610b39565b9150610e8082610e3f565b602082019050919050565b60006020820190508181036000830152610ea481610e68565b9050919050565b7f4e487b7100000000000000000000000000000000000000000000000000000000600052602260045260246000fd5b60006002820490506001821680610ef257607f821691505b602082108103610f0557610f04610eab565b5b50919050565b60008190508160005260206000209050919050565b60006020601f8301049050919050565b600082821b905092915050565b600060088302610f6d7fffffffffffffffffffffffffffffffffffffffffffffffffffffffffffffffff82610f30565b610f778683610f30565b95508019841693508086168417925050509392505050565b6000819050919050565b6000610fb4610faf610faa84610acb565b610f8f565b610acb565b9050919050565b6000819050919050565b610fce83610f99565b610fe2610fda82610fbb565b848454610f3d565b825550505050565b600090565b610ff7610fea565b611002818484610fc5565b505050565b5b818110156110265761101b600082610fef565b600181019050611008565b5050565b601f82111561106b5761103c81610f0b565b61104584610f20565b81016020851015611054578190505b61106861106085610f20565b830182611007565b50505b505050565b600082821c905092915050565b600061108e60001984600802611070565b1980831691505092915050565b60006110a7838361107d565b9150826002028217905092915050565b6110c082610b2e565b67ffffffffffffffff8111156110d9576110d8610928565b5b6110e38254610eda565b6110ee82828561102a565b600060209050601f831160018114611121576000841561110f578287015190505b611119858261109b565b865550611181565b601f19841661112f86610f0b565b60005b8281101561115757848901518255600182019150602085019450602081019050611132565b868310156111745784890151611170601f89168261107d565b8355505b6001600288020188555050505b505050505050565b7f4e487b7100000000000000000000000000000000000000000000000000000000600052601160045260246000fd5b60006111c382610acb565b91506111ce83610acb565b92508282039050818111156111e6576111e5611189565b5b92915050565b60006040820190506112016000830185610bad565b61120e6020830184610bee565b9392505050565b7f4e6f207375636820636572746966696361746500000000000000000000000000600082015250565b600061124b601383610b39565b915061125682611215565b602082019050919050565b6000602082019050818103600083015261127a8161123e565b9050919050565b7f4e487b7100000000000000000000000000000000000000000000000000000000600052603260045260246000fdfea2646970667358221220b13974456d78f29ee7d99d10bdedb9d0dbecaca2a566ff8d2e972b667cacb64764736f6c63430008140033",
    "linkReferences": {},
    "deployedLinkReferences": {}
}